:020000040800F2
:10000000701B002051020008BD300008EF2B0008D3
:10001000B93000086B0400086533000800000000D8
:10002000000000000000000000000000C3300008D5
:10003000F104000800000000C1300008C5300008CD
:100040006B0200086B0200086B0200086B020008DC
:100050006B0200086B0200086B0200086B020008CC
:100060006B0200086B0200086B0200086B020008BC
:100070006B0200086B0200086B0200086B020008AC
:10008000B1040008C10400086B0200086B020008FC
:1000900071040008810400086B0200086B0200086C
:1000A0006B0200086B0200086B0200086B0200087C
:1000B0006B0200086B0200086B0200086B0200086C
:1000C0006B0200086B0200086B0200086B0200085C
:1000D0006B0200086B020008453300086B02000841
:1000E0006B0200086B0200086B0200086B0200083C
:1000F0006B0200086B0200086B0200086B0200082C
:100100006B0200086B0200086B0200086B0200081B
:100110006B0200086B0200086B0200086B0200080B
:100120006B020008D10400086B0200086B02000893
:100130006B0200086B0200086B0200086B020008EB
:1001400091040008A10400086B0200086B0200087B
:100150006B020008E10400086B0200085533000838
:100160006B0200086B0200086B0200086B020008BB
:100170006B0200086B0200086B0200080000000020
:100180006B0200086B0200086B0200086B0200089B
:100190006B0200086B0200086B0200086B0200088B
:1001A00000000000000000006B02000800F002F8F0
:1001B00000F03EF80AA090E8000C82448344AAF1C3
:1001C0000107DA4501D100F033F8AFF2090EBAE8C1
:1001D0000F0013F0010F18BFFB1A43F0010318477B
:1001E000105A0000305A0000103A24BF78C878C175
:1001F000FAD8520724BF30C830C144BF04680C602D
:10020000704700000023002400250026103A28BF74
:1002100078C1FBD8520728BF30C148BF0B60704778
:100220001FB505F0D7F900F0D5F81FBD10B510BD0A
:1002300000F0E6F81146FFF7F3FF04F015FF00F0B9
:1002400004F903B4FFF7F2FF03BC00F007F9000064
:100250000948804709480047FEE7FEE7FEE7FEE75A
:10026000FEE7FEE7FEE7FEE7FEE7FEE70448054996
:10027000054A064B70470000CD300008AD0100086C
:1002800070150020701B00207017002070170020D0
:1002900053EA020C00F069802DE9F04B4FF00006A4
:1002A000002B1FBFB3FA83F503FA05F424FA05F611
:1002B0005E4012BF1643B2FA82F502FA05F4C5F1A8
:1002C00020051EBF22FA05FC44EA0C04203556EA3C
:1002D000044C4FEA144418BF641C4FF000084FF060
:1002E0000009904271EB030C39D3002919BFB1FA10
:1002F00081F701FA07F6B0FA80F700FA07F6C7F1BE
:1003000020071EBF20FA07FC46EA0C062037B6FB82
:10031000F4FCA7EB0507103F07F01F0BCBF12006FD
:100320000CFA0BFB2CFA06F644BFB3460026202F2E
:10033000A4BF5E464FF0000B5BEA060C08BF4FF00F
:10034000010B19EB0B09ABFB027C48EB0608C01B49
:1003500006FB02CC0BFB03CC71EB0C01C1E70B4697
:10036000024641464846BDE8F08B13B54FF0000009
:100370004FF00001AFF30080BDE81C4070474FF024
:10038000000200B5134694469646203922BFA0E8E5
:100390000C50A0E80C50B1F12001BFF4F7AF0907F1
:1003A00028BFA0E80C5048BF0CC05DF804EB8900E2
:1003B00028BF40F8042B08BF704748BF20F8022B25
:1003C00011F0804F18BF00F8012B7047704770473D
:1003D0007047000070B5064C7C44064D7D4403E038
:1003E000206820448047241DAC42F9D170BD000034
:1003F0003458000034580000004870470C150020A5
:100400007546FFF7F9FFAE4605006946534620F0F2
:100410000700854618B020B5FFF728FFBDE820404B
:100420004FF000064FF000074FF000084FF0000BB0
:1004300021F00701AC46ACE8C009ACE8C009ACE863
:10044000C009ACE8C0098D46704710B50446AFF34B
:1004500000802046BDE81040FFF7F3BE0149182098
:10046000ABBEFEE726000200704700BFFEE70000BB
:1004700010B5024800F09DF910BD000014090020DD
:1004800010B5024800F095F910BD000014090020D5
:1004900010B5024800F08DF910BD00003C090020A5
:1004A00010B5024800F085F910BD00003C0900209D
:1004B00010B5024800F01CFD10BD0000840A0020A9
:1004C00010B5024800F014FD10BD0000E40A002041
:1004D00010B5024800F00CFD10BD0000440B0020D8
:1004E00010B5024800F004FD10BD0000A40B002070
:1004F000704772B600BFFEE7F0B504460A462168B1
:1005000094F82050012D01D0022D7ED1424901F5F1
:100510000071086840F001000860086820F47C5011
:1005200008600868566A40EA06200860107D00F0FE
:100530001F06012000FA06F3C8699843C861A1F5B7
:100540000071D069C8B9D1F80C029843C1F80C0207
:10055000908880B2968940EA064601F51070576986
:1005600040F83760108880B2168940EA064601F5E7
:100570001070576900EBC7004660D069012819D197
:10058000D1F80C021843C1F80C02908880B216888A
:1005900040EA064601F51070576940F837609089C7
:1005A00080B2168940EA064601F51070576900EBE3
:1005B000C7004660906928B9D1F804029843C1F891
:1005C000040204E0D1F804021843C1F804021069DF
:1005D00028B9D1F814029843C1F8140204E0D1F804
:1005E00014021843C1F81402106A012804D1D1F88A
:1005F0001C021843C1F81C02D1F8000220F00100CF
:10060000C1F800020020F0BDFFE7606A40F48020DE
:1006100060620120F7E7000000640040704770B599
:10062000044694F82050012D01D0022D7DD151B9FE
:100630002068C06800F0030080B9606A40F40010D0
:100640006062012070BD2068006900F0030028B9D5
:10065000606A40F4001060620120F3E7206800F552
:10066000D87000EB0110006800F004009060906802
:1006700040B9206800F5D87000EB01100068400D0B
:10068000106007E0206800F5D87000EB01100068EA
:10069000C0085060206800F5D87000EB01100068B9
:1006A00000F00200D060206800F5D87000EB011067
:1006B000406800F00F00082802D30820106108E00D
:1006C000206800F5D87000EB0110406800F00F00C2
:1006D0001061206800F5D87000EB0110406800F44C
:1006E0007F40000A9061206800F5D87000EB01108F
:1006F0004068000C5061206800F5D87000EB0110D4
:1007000080681870206800F5D87000EB01108068D0
:1007100000F47F40000A5870206800F5D87000EBA4
:100720000110806800F47F0000E03CE0000C98704D
:10073000206800F5D87000EB01108068000ED870BA
:10074000206800F5D87000EB0110C06818712068AF
:1007500000F5D87000EB0110C06800F47F40000A7B
:100760005871206800F5D87000EB0110C06800F4E3
:100770007F00000C9871206800F5D87000EB011024
:10078000C068000ED87131B92068C06840F0200000
:100790002668F06005E02068006940F020002668C7
:1007A000306100204EE7606A40F4802060620120E2
:1007B00048E72DE9F05F0446002520684669206877
:1007C000D0F80490206887682068D0F80CA02068D2
:1007D000D0F810B02068D0F8188006F0010000288A
:1007E00055D007F00100C0B101202168886007F0F2
:1007F000020018B1204600F00AFB0EE007F00400EA
:1008000010B145F4006508E007F0080010B145F4A8
:10081000805502E0204600F0F9FA07F48070C8B174
:100820004FF480702168886007F4007018B120468A
:1008300000F0EFFA0EE007F4806010B145F40055C7
:1008400008E007F4006010B145F4804502E020465E
:1008500000F0DEFA07F48030C8B14FF48030216830
:10086000886007F4003018B1204600F0D4FA0EE09A
:1008700007F4802010B145F4004508E007F400209B
:1008800010B145F4803502E0204600F0C3FA06F0CE
:10089000080038B10AF0100020B145F400751020AE
:1008A0002168C86006F0040040B10AF0080028B1D1
:1008B00008202168C860204600F01CFA06F00200FB
:1008C00038B12068C06800F0030010B1204600F085
:1008D00013FA06F0400038B10BF0100020B145F4D7
:1008E000806510202168086106F0200040B10BF0FF
:1008F000080028B1082021680861204600F028FA85
:1009000006F0100038B12068006900F0030010B153
:10091000204600F01FFA06F4003040B109F0100044
:1009200028B1102021684860204600F03FFA06F404
:10093000803040B109F0080028B1082021684860E3
:10094000204600F069FA06F4004088B309F004007C
:1009500078B306F4807020B108F0010008B145F0CA
:10096000010506F4007020B108F0020008B145F05E
:10097000020506F4806020B108F0040008B145F0DB
:10098000040506F40060A0B108F0700088B108F01A
:100990007000402817D006DC10280BD020280CD07F
:1009A000302819D10CE0502810D0602814D110E064
:1009B0001DE019E045F008050FE045F010050CE0DA
:1009C00045F0200509E045F0400506E045F08005CA
:1009D00003E045F4807500E000BF00BF2068806937
:1009E00020F07000216888610420216848602DB1E2
:1009F000606A284360622046FFF710FEBDE8F09F62
:100A000070B504460CB9012070BD94F8200010B9EF
:100A1000204600F0AFF82068006840F0010021682F
:100A2000086000F06FFD05460DE000F06BFD401B17
:100A30000A2808D9606A40F400306062052084F812
:100A400020000120E0E72068406800F00100002855
:100A5000EBD02068006820F002002168086000F0F8
:100A600051FD05460DE000F04DFD401B0A2808D958
:100A7000606A40F400306062052084F820000120A4
:100A8000C2E72068406800F002000028EBD1207E19
:100A9000012806D12068006840F0800021680860C5
:100AA00005E02068006820F0800021680860607E12
:100AB000012806D12068006840F0400021680860E5
:100AC00005E02068006820F0400021680860A07EF2
:100AD000012806D12068006840F0200021680860E5
:100AE00005E02068006820F0200021680860E07EB2
:100AF000012806D12068006820F0100021680860F5
:100B000005E02068006840F0100021680860207F40
:100B1000012806D12068006840F0080021680860BC
:100B200005E02068006820F0080021680860607F08
:100B3000012806D12068006840F0040021680860A0
:100B400005E02068006820F0040021680860D4E90E
:100B50000201084321690843616908436168491E2D
:100B600008432168C86100206062012084F82000E9
:100B7000002049E710B586B00446142101A8FFF70C
:100B8000FEFB56492068884249D155480068401C00
:100B9000534908600846006801280FD100BF0020B3
:100BA00000905048006840F000704E4908600846C8
:100BB000006800F00070009000BF00BF00BF002080
:100BC000009048481038006840F008004549103946
:100BD00008600846006800F00800009000BF00BFF1
:100BE0000320019002200290002003900320049033
:100BF0000920059001A93C4800F06EFB0022114637
:100C0000142000F00DFD142000F0F6FC0022114627
:100C1000152000F005FD152000F0EEFC5CE03349E6
:100C20002068884258D100BF002000902D480068FD
:100C300040F080602B4908600846006800F0806042
:100C4000009000BF00BF26480068401C244908608F
:100C50000846006801280FD100BF002000902148FD
:100C6000006840F000701F4908600846006800F006
:100C70000070009000BF00BF00BF00200090194826
:100C80001038006840F00200164910390860084624
:100C9000006800F00200009000BF00BF60200190DB
:100CA0000220029000200390032004900920059068
:100CB00001A90F4800F010FB00221146402000F06F
:100CC000AFFC402000F098FC00221146412000F0CB
:100CD000A7FC412000F090FC06B010BD006400406D
:100CE0000000002040380240000C02400068004034
:100CF000000402407047000010B504461049206807
:100D000088420CD10F4BA3F11C0200212046FFF7B3
:100D100086FC0C482038816A001D88470FE00A498C
:100D2000206888420BD1094BA3F11C020021204608
:100D3000FFF775FC05482038816A001D884710BD03
:100D400000640040240C002000680040500C00208B
:100D50007047000010B504461049206888420CD145
:100D60000F4BA3F11C0201212046FFF758FC0C4851
:100D70002038816A001D88470FE00A4920688842B0
:100D80000BD1094BA3F11C0201212046FFF747FCC0
:100D900005482038816A001D884710BD0064004066
:100DA000240C002000680040500C0020704770B5F3
:100DB000044694F82000012822D1022084F8200063
:100DC0002068006820F001002168086000F09AFBAC
:100DD00005460DE000F096FB401B0A2808D9606A22
:100DE00040F400306062052084F82000012070BDCE
:100DF0002068406800F001000028EBD16062F6E74F
:100E0000606A40F4002060620120F0E7704770479C
:100E10007047704770477047704770B50446A56DBE
:100E200000F070FB064694F83500022808D08020B8
:100E3000606500BF002084F8340000BF012070BD51
:100E40002068006820F0160021680860206840696A
:100E500020F0800021684861206C08B9A06C28B19E
:100E60002068006820F00800216808602068006899
:100E700020F001002168086010E000F043FB801BB7
:100E800005280BD920206065032084F8350000BFB9
:100E9000002084F8340000BF0320D0E720680068F9
:100EA00000F001000028E8D194F85C103F20884051
:100EB000A860012084F8350000BF002084F83400C9
:100EC00000BF00BFBBE7014691F83500022803D000
:100ED0008020486501207047052081F835000868AA
:100EE000006820F001000A6810600020F3E70000AD
:100EF000F8B50446002000908C4800684FF4165165
:100F0000B0FBF1F7A56D2E6894F85C1008208840BE
:100F1000304098B12068006800F0040070B120688B
:100F2000006820F004002168086094F85C10082034
:100F30008840A860606D40F00100606594F85C1026
:100F400001208840304068B12068406900F080008E
:100F500040B194F85C1001208840A860606D40F0BA
:100F60000200606594F85C1004208840304068B14D
:100F70002068006800F0020040B194F85C10042082
:100F80008840A860606D40F00400606594F85C10D3
:100F900010208840304078B32068006800F00800D6
:100FA00050B394F85C1010208840A8602068006856
:100FB00000F4802080B12068006800F4002028B987
:100FC000206CC8B12046216C884715E0A06C98B110
:100FD0002046A16C88470FE02068006800F480700C
:100FE00028B92068006820F0080021680860206C9B
:100FF00010B12046216C884794F85C10202088406E
:101000003040002865D02068006800F010000028FB
:101010005FD094F85C1020208840A86094F83500D8
:10102000052828D12068006820F016002168086093
:101030002068406920F0800021684861206C08B970
:10104000A06C28B12068006820F0080021680860C2
:1010500094F85C103F208840A860012084F8350097
:1010600000BF002084F8340000BF206D10B120467E
:10107000216D8847F8BD2068006800F4802080B1A9
:101080002068006800F4002028B9606C10B1204688
:10109000616C88471DE0E06BD8B12046E16B884762
:1010A00017E02068006800F4807068B92068006864
:1010B00020F0100021680860012084F8350000BF8E
:1010C000002084F8340000BFE06B10B12046E16BD3
:1010D0008847606D38B3606D00F00100F0B1052005
:1010E00084F835002068006820F00100216808605D
:1010F00000BF0098401C0090B84200D905E020686D
:10110000006800F001000028F3D100BF012084F83E
:10111000350000BF002084F8340000BFE06C10B13F
:101120002046E16C884700BFA4E7000010000020C3
:101130002DE9F0410446002500F0E4F9074614B912
:101140000120BDE8F081606A00B100BF022084F890
:10115000350000BF002084F8340000BF206800681C
:1011600020F00100216808600AE000F0CBF9C01B04
:10117000052805D920206065032084F83500E0E7C4
:101180002068006800F001000028EED120680568A2
:1011900021480540D4E901010843E1680843216979
:1011A000084361690843A1690843E1690843216A6A
:1011B00008430543606A042803D1D4E90B010843BE
:1011C0000543206805602068456925F00705606AC9
:1011D0000543606A04280DD1A06A0543E06A48B15E
:1011E000204603F09BFA28B140206065012084F876
:1011F0003500A6E720684561204603F0E5FA06467B
:1012000094F85C103F208840B060002060650120A9
:1012100084F83500002094E73F8010F02DE9F04776
:1012200004460D4616461F464FF00008D4F8589065
:1012300000BF94F83400012802D10220BDE8F087F5
:10124000012084F8340000BF94F83500012825D12E
:10125000022084F83500002060653B46324629466E
:10126000204603F045FA94F85C103F208840C9F806
:1012700008002068006840F0160021680860206CB3
:1012800028B12068006840F00800216808602068E4
:10129000006840F001002168086006E000BF0020FF
:1012A00084F8340000BF4FF002084046C6E7000053
:1012B00070B5044600F026F906462546681C10B1B4
:1012C00004480078054400BF00F01CF9801BA842C8
:1012D000FAD370BD0C000020F8B502460B4600257D
:1012E000002400200021E0E0012606FA01F51E6836
:1012F00006EA0504AC4274D11E7906F00306012EFD
:1013000004D01E7906F00306022E13D190684F0018
:101310000326BE40B0434F00DE68BE4030439060BD
:10132000506801268E40B0431E79C6F300168E40E9
:10133000304350601E7906F00306032E09D0D068B2
:101340004F000326BE40B0434F009E68BE4030436E
:10135000D0601E7906F00306022E13D1CF0802F1E9
:10136000200656F827004E07F70E0F26BE40B04362
:101370004F07FF0E1E69BE403043CF0802F1200622
:1013800046F8270010684F000326BE40B0431E7980
:1013900006F003064F00BE40304310605E6806F45E
:1013A0004036002E1DD000BF00260096414E366804
:1013B00046F480463F4F3E603E46366806F480461F
:1013C000009600BF00BF3C4E8F0856F827008E07DE
:1013D000370F0F26BE40B043384EB24202D100262E
:1013E0002EE061E0364EB24201D1012628E0354EB2
:1013F000B24201D1022623E0334EB24201D103268C
:101400001EE0324EB24201D1042619E0304EB24203
:1014100001D1052614E02F4EB24201D106260FE07D
:101420002D4EB24201D107260AE02C4EB24201D124
:10143000082605E02A4EB24201D1092600E00A261C
:101440008F073F0FBE4030431B4E8F0846F82700E2
:10145000244E3068A0435E6806F4801606B120432F
:10146000204E3060361D3068A0435E6806F40016DA
:1014700006B120431B4E361D30601A4E361F3068B1
:10148000A0435E6806F4003606B12043154E361FB1
:101490003060361F3068A0435E6806F4803606B1BF
:1014A0002043104E083E3060491C1029FFF41CAF49
:1014B000F8BD0000443802400838014000000240F6
:1014C0000004024000080240000C024000100240EC
:1014D0000014024000180240001C0240002002409C
:1014E00000240240083C0140024613690B400BB146
:1014F000012000E0002070470AB1816101E00B0487
:1015000083617047014800687047000004000020B4
:101510000348006803490978084401490860704796
:10152000040000200C00002010B50D48006840F4B5
:1015300000700B4908600846006840F4806008604D
:101540000846006840F480700860032000F0A6F8A8
:101550000F2000F007F800F02BF8002010BD00006D
:10156000003C024070B504460E4800784FF47A7192
:10157000B1FBF0F00C490968B1FBF0F5284600F02A
:1015800075FC08B1012070BD102C07D20022214645
:10159000501E00F045F80548046001E00120F2E724
:1015A0000020F0E70C0000201000002008000020C0
:1015B00008B500BF002000900E48006840F480404D
:1015C0000C4908600846006800F48040009000BFA5
:1015D00000BF00BF00200090081F006840F080504E
:1015E000091F08600846006800F08050009000BFA6
:1015F00000BF08BD443802400146084600280DDB04
:1016000000BF00BF00F01F0301229A4043099B0066
:1016100003F1E023C3F8002100BF00BF00BF704703
:101620002DE9F05F80460D461646002703F084FC46
:10163000074639462A46334601F00700C0F1070A3B
:10164000BAF1040F02D94FF0040A01E0C0F1070A11
:10165000D14600F1040ABAF1070F02D24FF0000A96
:1016600001E0A0F1030AD4464FF0010A0AFA09FA90
:10167000AAF1010A0AEA020A0AFA0CFA4FF0010B6F
:101680000BFA0CFBABF1010B0BEA030B4AEA0B0460
:101690002146404603F03CFCBDE8F09F00BF00F04F
:1016A0000702064B19684FF6FF031940044B0B4322
:1016B00043EA0221014B196000BF70470CED00E0C6
:1016C0000000FA0538B5002400BF002000901D4836
:1016D000006840F080501B4908600846006800F030
:1016E0008050009000BF00BF012017490864FFF739
:1016F00009FF044607E0FFF705FF001BB0F57A7FFE
:1017000001D9032038BD1148406800F48030B0F59D
:10171000803FF0D101200C494864FFF7F3FE0446F6
:1017200007E0FFF7EFFE001BB0F57A7F01D9032039
:10173000E8E70648406800F40030B0F5003FF0D11B
:101740000020DFE74038024000000E4200700040F9
:1017500070B504460D460CB9012070BD58480068AC
:1017600000F00F00A84209D255490D7008460068E4
:1017700000F00F00A84201D00120EEE7207800F031
:10178000020002281DD1207800F00400042805D1B1
:101790004C48006840F4E0504A490860207800F066
:1017A0000800082805D14748006840F460404549D2
:1017B00008604448006820F0F000A16808434149EF
:1017C0000860207800F00100A8B36068012807D104
:1017D0003C4808380068C0F34040B8B90120BCE775
:1017E0006068022802D06068032807D135480838AD
:1017F0000068C0F3406048B90120AEE731480838BE
:101800000068C0F3400008B90120A6E72D48006831
:1018100020F00300616808432A490860FFF772FE60
:10182000064609E0FFF76EFE801B41F288318842D0
:1018300002D9032091E707E02248006800F00C007D
:101840006168B0EB810FEDD11D48006800F00F001A
:10185000A84209D91A490D700846006800F00F0027
:10186000A84201D0012078E7207800F00400042885
:1018700007D11448006820F4E050E168084311499A
:101880000860207800F00800082808D10D4800689A
:1018900020F46040216940EAC1000A49086000F074
:1018A0003FF808490968C1F30311074A515CC84071
:1018B0000649086006480068FFF754FE00204CE720
:1018C000003C024008380240E655000810000020A5
:1018D0000800002001480068704700001000002048
:1018E00000B5FFF7F7FF04490968C1F38221034AF5
:1018F000515CC84000BD000008380240F6550008A1
:1019000000B5FFF7E7FF04490968C1F34231034A14
:10191000515CC84000BD000008380240F655000880
:101920002DE9F047002400250026A146254800683F
:1019300000F00C0020B1042805D008283AD105E0B9
:10194000DFF8849039E0DFF8849036E01D48001F0E
:10195000006800F03F041B48001F006800F480008E
:1019600078B11A481749091F0968C1F38811A0FB0B
:1019700001700146224600233846FEF789FC0546E1
:101980000EE011480F49091F0968C1F38811A0FB37
:1019900001700146224600233846FEF779FC0546D1
:1019A0000848001F0068C0F30140401C4600B5FB1A
:1019B000F6F902E0DFF8109000BF00BF4846BDE82E
:1019C000F0870000083802400024F400001BB70034
:1019D000F8B504460CB90120F8BD207800F00100EC
:1019E000002874D0F948006800F00C0004280DD0DD
:1019F000F648006800F00C00082813D1F348001FD7
:101A0000006800F48000B0F5800F0BD1EF48083873
:101A10000068C0F34040002859D06068002856D1C3
:101A20000120D9E700BF6068B0F5803F08D1E748E2
:101A30000838006840F48030E449083908601EE046
:101A40006068B0F5A02F0DD1E0480838006840F478
:101A50008020DE49083908600846006840F480307C
:101A600008600CE0D9480838006820F48030D74975
:101A7000083908600846006820F48020086000BF2C
:101A8000606890B1FFF73EFD054606E0FFF73AFDBE
:101A9000401B642801D903209EE7CC480838006821
:101AA000C0F340400028F1D011E0FFF72BFD0546C0
:101AB00006E0FFF727FD401B642801D903208BE7D0
:101AC000C24808380068C0F340400028F1D12078AF
:101AD00000F0020002285FD1BC48006800F00C0052
:101AE00058B1BA48006800F00C0008281CD1B7486B
:101AF000001F006800F48000B0B9B44808380068DE
:101B0000C0F3400020B1E068012801D0012063E764
:101B1000AE480838006820F0F800216940EAC100AA
:101B2000AA490839086037E0E06800B30120A849F5
:101B30000860FFF7E7FC054606E0FFF7E3FC401B03
:101B4000022801D9032047E7A04808380068C0F3FD
:101B500040000028F1D09D480838006820F0F800C7
:101B6000216940EAC10099490839086014E0002061
:101B700097490860FFF7C6FC054606E0FFF7C2FC80
:101B8000401B022801D9032026E790480838006846
:101B9000C0F340000028F1D1207800F008000828A8
:101BA0002CD16069A8B101208A490860FFF7AAFC1E
:101BB000054606E0FFF7A6FC401B022801D90320DA
:101BC0000AE782486C300068C0F340000028F1D07A
:101BD00014E000207F490860FFF794FC054606E00A
:101BE000FFF790FC401B022801D90320F4E6774858
:101BF0006C300068C0F340000028F1D1207800F07C
:101C00000400042870D1002770483830006800F0C4
:101C1000805090B900BF002000906C4838300068B8
:101C200040F080506949383108600846006800F08B
:101C30008050009000BF00BF01276748006800F493
:101C40008070B0B96448006840F4807062490860F0
:101C5000FFF758FC054606E0FFF754FC401B02283E
:101C600001D90320B8E65C48006800F480700028C1
:101C7000F2D000BFA068012808D15448683000683D
:101C800040F001005149683108601DE0A068052856
:101C90000DD14E486830006840F004004B4968316F
:101CA00008600846006840F0010008600CE0474802
:101CB0006830006820F00100444968310860084637
:101CC000006820F00400086000BFA068A8B1FFF71A
:101CD00019FC054609E0FFF715FC401B41F288316D
:101CE000884202D9032077E626E038486830006849
:101CF000C0F340000028EED013E0FFF703FC0546D8
:101D000008E0FFF7FFFB401B41F28831884201D910
:101D1000032061E62D4868300068C0F340000028C9
:101D2000EFD1012F07D129483830006820F08050CA
:101D300026493831086000BFA069002845D02348F3
:101D4000006800F00C0008285DD0A069022845D189
:101D500000201F490866FFF7D5FB054606E0FFF7A0
:101D6000D1FB401B022801D9032035E6174808386B
:101D70000068C0F340600028F1D1D4E907010843AE
:101D8000616A40EA81110122A06AC2EB500041EA77
:101D900000412C20005D41EA00600C49091F0860E9
:101DA00001200B490866FFF7ADFB054606E0FFF78B
:101DB000A9FB401B022801D903200DE6034808387F
:101DC0000068C0F340600028F1D049E008380240C4
:101DD00000004742800E4742007000400020214929
:101DE0000866FFF78FFB054606E0FFF78BFB401BFD
:101DF000022801D90320EFE51B480068C0F34060CA
:101E00000028F2D12CE0A069012800D1E4E51648B1
:101E1000001D0668A069012820D006F48001E06951
:101E200081421BD106F03F01206A814216D147F65C
:101E3000C0703040616AB0EB811F0FD106F44031B1
:101E40000122A06AC2EB5000B1EB004F06D106F0B0
:101E500070612C20005DB1EB006F01D00120BBE56B
:101E60000020B9E5000047420038024070B5044642
:101E70002546681EB0F1807F01D301200FE0681E67
:101E80004FF0E02148610F214FF0FF3003F040F8A0
:101E900000204FF0E021886107200861002070BD1C
:101EA00030B502460B4600BF92F83C00012801D134
:101EB000022030BD012082F83C0000BF022082F8E1
:101EC0003D00106844681068816824F07004186848
:101ED000044310684460184D1068A8421BD0106875
:101EE000B0F1804F17D0154D1068A84213D0144D93
:101EF0001068A8420FD0134D1068A8420BD0124DA5
:101F00001068A84207D0114D1068A84203D0104DA8
:101F10001068A84205D121F080015868014310687B
:101F20008160012082F83D0000BF002082F83C0063
:101F300000BF00BFBDE700000000014000040040FA
:101F400000080040000C0040000401400040014037
:101F50000018004010B504460CB9012010BD94F8DB
:101F60003D0028B9002084F83C00204600F026F807
:101F7000022084F83D00211D206801F0B1F8012005
:101F800084F8460000BF84F83E0001213F2001553F
:101F9000402001554120015500BF00BF012084F8B9
:101FA000420043200155442001554520015500BF02
:101FB000012084F83D000020D0E7000008B501684A
:101FC000B1F1804F0FD100BF002100911049096885
:101FD00041F001010E4A11601146096801F001014A
:101FE000009100BF13E00B4A016891420FD100BF7E
:101FF000002100910649096841F00401044A11607A
:102000001146096801F00401009100BF00BF08BD3E
:102010004038024000080040014691F83D00012888
:1020200001D001207047022081F83D000868C06897
:1020300040F001000B68D8601A4B086898421BD02A
:102040000868B0F1804F17D0174B0868984213D03A
:10205000164B086898420FD0154B086898420BD071
:10206000144B0868984207D0134B0868984203D075
:10207000124B086898420CD10868806800F007028B
:10208000062A0CD00868006840F001000B68186050
:1020900005E00868006840F001000B681860002047
:1020A000C0E70000000001400004004000080040BC
:1020B000000C0040000401400040014000180040B6
:1020C0002DE9F04104460D46002700BF94F83C007E
:1020D000012802D10220BDE8F081012084F83C00F3
:1020E00000BF022084F83D002068866826F077064D
:1020F00026F47F46206886602868502833D00CDCA0
:10210000202850D004DC00284BD0102851D149E0C1
:10211000302849D040284CD139E060282DD0702893
:1021200007D0B0F5805F03D0B0F5005F41D10DE07E
:1021300041E0D5E902136A68206801F056F820688A
:10214000866846F077062068866034E0D5E9021399
:102150006A68206801F049F82068806840F480408F
:102160002168886027E0EA686968206802F0EDFB72
:102170005021206802F0E0FB1DE0EA6869682068F1
:1021800002F0F6FB6021206802F0D6FB13E0EA685B
:102190006968206802F0D9FB4021206802F0CCFB7E
:1021A00009E000BF00BF00BF2968206802F0C4FB3F
:1021B00001E0012700BF00BF012084F83D0000BFFF
:1021C000002084F83C0000BF384684E710B586B094
:1021D0000446142101A8FEF7D2F82068B0F1804F20
:1021E0001DD100BF002000901F48006840F0010092
:1021F0001D4908600846006800F00100009000BF1B
:1022000000BF08200190022002900020039004905B
:102210000120059001A91548FFF75EF821E0144957
:10222000206888421DD100BF002000900E48006841
:1022300040F008000C4908600846006800F00800FB
:10224000009000BF00BF4FF4704001900220029048
:102250000020039004900220059001A90548FFF793
:102260003BF806B010BD00003038024000000240CC
:1022700000080040000C02402DE9F04104460D46E4
:102280001646002700BF94F83C00012802D1022026
:10229000BDE8F081012084F83C0000BF36B1042E77
:1022A0001BD0082E31D00C2E5ED145E02946206887
:1022B00002F0A4FA2068806940F008002168886173
:1022C0002068806920F004002168886120688069A6
:1022D000296908432168886148E02946206800F0A0
:1022E0008FFF2068806940F4006021688861206861
:1022F000806920F48060216888612068806929698C
:1023000040EA01202168886130E02946206802F017
:10231000ADFA2068C06940F008002168C8612068F3
:10232000C06920F004002168C8612068C06929697B
:1023300008432168C86119E02946206802F0D2FAF2
:102340002068C06940F400602168C8612068C069E5
:1023500020F480602168C8612068C069296940EA6A
:1023600001202168C86101E0012700BF00BF00BF54
:10237000002084F83C0000BF384689E710B50446C9
:102380000CB9012010BD94F83D0028B9002084F854
:102390003C00204600F025F8022084F83D00211D75
:1023A000206800F09DFE012084F8460000BF84F8FC
:1023B0003E0001213F20015540200155412001559B
:1023C00000BF00BF012084F8420043200155442093
:1023D00001554520015500BF012084F83D00002033
:1023E000D0E7704770B504460D4615B994F83E0025
:1023F0000BE0042D02D13F20005D06E0082D02D144
:102400004020005D01E04120005D012801D0012055
:1024100070BD1DB9022084F83E000EE0042D03D1EA
:1024200002213F20015508E0082D03D10221402060
:10243000015502E002214120015501222946206870
:1024400000F0C2FE23492068884203D02249206858
:10245000884201D1012000E0002028B12068406CB2
:1024600040F40040216848641A49206888421BD023
:102470002068B0F1804F17D018492068884213D0E7
:102480001749206888420FD01649206888420BD02F
:1024900011492068884207D013492068884203D038
:1024A0001249206888420CD12068806800F0070635
:1024B000062E0CD02068006840F0010021680860FA
:1024C00005E02068006840F00100216808600020F5
:1024D0009EE70000000001400004014000040040AD
:1024E00000080040000C004000400140001800407F
:1024F000F8B504460E46174694F8420020282ED11F
:1025000006B10FB90120F8BD0120206300206063EF
:102510003A463146204600F0B1FE0546EDB9206B43
:10252000012819D100BF00200090206800680090A9
:1025300020684068009000BF00BF00BF00BF216856
:102540000C3151E8001F41F0100021680C3141E8C6
:102550000002002AF3D100E001252846D3E702203B
:10256000D1E7000070B504460D4630492068884226
:102570000BD12F4B19895868DA6890472C4802898B
:1025800041682046FFF7B4FF4EE02A4920688842A0
:102590000BD1294B19895868DA6890472648028977
:1025A00041682046FFF7A4FF3EE0244920688842A6
:1025B0000BD1234B19895868DA6890472048028963
:1025C00041682046FFF794FF2EE01E4920688842AC
:1025D0000BD11D4B19895868DA6890471A4802894F
:1025E00041682046FFF784FF1EE0184920688842B2
:1025F0000BD1174B19895868DA689047144802893B
:1026000041682046FFF774FF0EE0124920688842B7
:102610000AD1114B19895868DA6890470E48028927
:1026200041682046FFF764FF70BD000000100140C4
:102630005C0C0020004400406C0C0020004800406E
:102640007C0C0020004C00408C0C0020005000400E
:102650009C0C002000140140AC0C002070470000CE
:102660002DE9F84F0446206805682068C668206890
:1026700047694FF00009CA4605F00F09B9F1000F8C
:102680000AD105F0200038B106F0200020B1204624
:1026900002F0C0FABDE8F88FB9F1000F7CD007F066
:1026A000010018B906F49070002875D005F00100FB
:1026B00030B106F4807018B1606C40F001006064C5
:1026C00005F0040030B107F0010018B1606C40F073
:1026D0000200606405F0020030B107F0010018B19B
:1026E000606C40F00400606405F0080048B106F03A
:1026F000200010B907F0010018B1606C40F008002C
:102700006064606C002846D005F0200028B106F017
:10271000200010B1204602F07DFA20684069C0F325
:10272000801A606C00F0080010B9BAF1000F2DD0CB
:10273000204602F02FFB2068406900F0400040284E
:1027400020D100BF00BF2168143151E8001F21F0E3
:1027500040002168143141E80002002AF3D100BF93
:10276000E06B50B17748E16B0865E06BFEF7ABFBBF
:1027700088B1E06B016D88470DE02046FFF76EFFE2
:1027800009E009E02046FFF769FF04E02046FFF773
:1027900065FF002060647DE7206B012878D105F09B
:1027A0001000002874D006F010000028FAD000BFF6
:1027B0000020009020680068009020684068009029
:1027C00000BF00BF2068406900F04000402860D191
:1027D000E06B006840681FFA80F8B8F1000F56D02F
:1027E000A08D404553DDA4F82E80E06BC069B0F5A4
:1027F000807F43D000BF00BF21680C3151E8001F2B
:1028000021F4807021680C3141E80002002AF3D1E4
:1028100000BF00BF00BF2168143151E8001F21F044
:1028200001002168143141E80002002AF3D100BF01
:1028300000BF00BF2168143151E8001F21F04000A3
:102840002168143141E80002002AF3D100BF2020A2
:1028500084F842000020206300BF00BF21680C31D3
:1028600051E8001F21F0100021680C3141E80002FE
:10287000002AF3D100BFE06BFEF7CFFA02206063BD
:10288000A08DE28D801A81B22046FFF76BFE01E732
:1028900042E0A08DE18D401A1FFA80F8E08DD0B3A0
:1028A000B8F1000F37D000BF00BF21680C3151E8EC
:1028B000001F21F4907021680C3141E80002002AC9
:1028C000F3D100BF00BF00BF2168143151E8001FE1
:1028D00021F001002168143141E80002002AF3D1FF
:1028E00000BF202084F842000020206300BF00BF0A
:1028F00021680C3151E8001F21F0100021680C31D3
:1029000041E80002002AF3D100BF02206063414683
:102910002046FFF727FEBDE605F0800030B106F047
:10292000800018B1204602F0F3F9B3E605F040004C
:1029300030B106F0400018B1204602F0CEFAA9E608
:1029400000BFA7E6FB4E000810B504460CB90120F5
:1029500010BDA06900B100E000BF94F8410028B9A3
:10296000002084F84000204600F02AF8242084F853
:1029700041002068C06820F400502168C8602046EB
:1029800002F032F82068006920F490402168086164
:102990002068406920F02A00216848612068C068EA
:1029A00040F400502168C86000206064202084F852
:1029B000410084F842000020606300BFC8E70000C7
:1029C00010B586B00446142101A8FDF7D8FC7B4958
:1029D0002068884275D100BF0020009078480068C8
:1029E00040F40030764908600846006800F4003082
:1029F000009000BF00BF00BF00200090704810385A
:102A0000006840F008006E49103908600846006808
:102A100000F00800009000BF00BF6020019002207D
:102A2000029000200390032004900720059001A944
:102A30006448FEF751FC6448644908604FF0006048
:102A40004860002161488160C1604FF4806101618C
:102A5000002141618161C16101624162FEF768FB51
:102A600008B1FDF746FD00BF5848E063846300BF2E
:102A700055481830564908604FF0006048604021C2
:102A8000534881600021C1604FF4806101610021E1
:102A900041618161C16101624162FEF749FB08B198
:102AA000FDF727FD00BF4A48A063846300BF0022F2
:102AB00011462620FEF7B4FD2620FEF79DFD7AE0A4
:102AC000FFE744492068884275D100BF002000908C
:102AD0003B48001D006840F020003949091D08608E
:102AE0000846006800F02000009000BF00BF00BF53
:102AF0000020009032481038006840F04000304913
:102B0000103908600846006800F04000009000BFDF
:102B100000BF4FF4844001900220029000200390F7
:102B2000032004900820059001A92B48FEF7D4FB50
:102B30002A482B49086080054860002128488160A8
:102B4000C1604FF480610161002141618161C16117
:102B500001624162FEF7ECFA08B1FDF7CAFC00BF62
:102B60001F48E063846300BF1C4878301D4908603B
:102B70004FF02060486040211A4881600021C16008
:102B80004FF480610161002141618161C161016295
:102B90004162FEF7CDFA08B1FDF7ABFC00BF11486A
:102BA000A063846300BF002211464720FEF738FD72
:102BB0004720FEF721FD06B010BD00000044004094
:102BC00040380240000C024088600240840A002025
:102BD000E40A00200014014000180240286402406A
:102BE000440B0020A40B002070477047704700BFC3
:102BF000FEE7000010B50E480E4908600920486045
:102C000000210C488160C1604FF4803101610901ED
:102C10004161002101760121417600218176C17652
:102C200001774177FDF7ECFE08B1FDF762FC10BDBE
:102C3000006400401409002010B50E480E490860D9
:102C40000920486000210C488160C1604FF4803148
:102C500001610901416100210176012141760021D4
:102C60008176C17601774177FDF7CAFE08B1FDF79D
:102C700040FC10BD006800403C09002008B500BFC2
:102C8000002000901E48006840F400101C490860B5
:102C90000846006800F40010009000BF00BF00BFAD
:102CA000002000900846006840F480000860084654
:102CB000006800F48000009000BF00BF00221146B1
:102CC0001020FEF7ADFC1020FEF796FC0022114606
:102CD0001120FEF7A5FC1120FEF78EFC0022114604
:102CE0003920FEF79DFC3920FEF786FC00221146B4
:102CF0004520FEF795FC4520FEF77EFC08BD000050
:102D00003038024000B587B0142102A8FDF737FB28
:102D100000BF002001906748006840F0020065494C
:102D200008600846006800F00200019000BF00BF84
:102D300000BF002001900846006840F04000086095
:102D40000846006800F04000019000BF00BF00BFCF
:102D5000002001900846006840F001000860084625
:102D6000006800F00100019000BF00BF00BF00201C
:102D700001900846006840F00800086008460068B6
:102D800000F00800019000BF00BF00BF00200190CC
:102D90000846006840F4807008600846006800F447
:102DA0008070019000BF00BF00BF00200190084666
:102DB000006840F0200008600846006800F020002D
:102DC000019000BF00BF00BF0020019008460068CE
:102DD00040F0800008600846006800F08000019024
:102DE00000BF00BF0022E0213348FEF785FB01222F
:102DF00005213148FEF780FB012203212F48FEF711
:102E00007BFB002241F63C412D48FEF775FB00227A
:102E10004FF4FF712B48FEF76FFB002207212A4871
:102E2000FEF76AFBE5200290012003900020049049
:102E3000059002A92048FEF74FFA032002901120C6
:102E40000390012004900020059002A91B48FEF782
:102E500043FA41F63C400290012003900020049088
:102E6000059002A91648FEF737FA4FF4FF7002905A
:102E70000120039004900020059002A91148FEF75C
:102E80002BFA0320029011200390012004900020CF
:102E9000059002A90C48FEF71FFA042002900120B9
:102EA000039000200490059002A90748FEF714FA49
:102EB00007B000BD3038024000200240001402403C
:102EC000001C0240001802400000024000B58DB016
:102ED000002009900A900B900C90079008901C21FC
:102EE0006846FDF74CFA4FF08040204908605920B1
:102EF000486000211D48816044F61F61C1600021C7
:102F000001618161FFF726F808B1FDF7F2FA4FF48D
:102F10008050099009A91548FFF7D2F808B1FDF7CC
:102F2000E8FA1248FFF72AFA08B1FDF7E2FA0020A2
:102F30000790089007A90D48FEF7B2FF08B1FDF70A
:102F4000D8FA602000904FF4FA60019000200290BF
:102F500004900C2269460548FFF78EF908B1FDF789
:102F6000C8FA0248FFF732F90DB000BD640900202D
:102F700000B58DB0002009900A900B900C9007903E
:102F800008901C216846FDF7FAF92D482D49086084
:102F90005920486000212B48816044F61F61C160C0
:102FA000002101618161FEF7D5FF08B1FDF7A1FAAB
:102FB0004FF48050099009A92248FFF781F808B121
:102FC000FDF797FA1F48FFF7D9F908B1FDF791FA15
:102FD00000200790089007A91A48FEF761FF08B182
:102FE000FDF787FA602000904FF4FA60019000200E
:102FF00002900490002269461248FFF73DF908B19B
:10300000FDF777FA042269460E48FFF735F908B153
:10301000FDF76FFA082269460A48FFF72DF908B153
:10302000FDF767FA0C2269460648FFF725F908B153
:10303000FDF75FFA0348FFF7C9F80DB000BD0000C7
:1030400000080040AC09002010B50B480B4908608F
:103050004FF4E1304860002108488160C16001619F
:103060000C21416100218161C161FFF76DFC08B154
:10307000FDF73FFA10BD000000440040F4090020B5
:1030800010B50B480B4908604FF4E130486000214F
:1030900008488160C16001610C21416100218161AA
:1030A000C161FFF751FC08B1FDF723FA10BD000024
:1030B000001401403C0A002000BFFEE700BFFEE70D
:1030C0007047704710B5FEF723FA10BD034800683B
:1030D00040F47000014908607047000088ED00E08E
:1030E00010B502682D4B98420ED0B0F1804F0BD036
:1030F0002B4B984208D02B4B984205D02A4B984234
:1031000002D02A4B984203D122F070024B681A4336
:10311000224B984220D0B0F1804F1DD0204B9842D6
:103120001AD0204B984217D01F4B984214D01F4BF7
:10313000984211D01E4B98420ED01E4B98420BD095
:103140001D4B984208D01D4B984205D01C4B98420D
:1031500002D01C4B984203D122F44072CB681A4330
:1031600022F080034C6943EA040202608B68C36268
:103170000B688362094B984202D00C4B984201D1F4
:103180000B69036301234361036903F001031BB16E
:10319000036923F00103036110BD0000000001403A
:1031A0000004004000080040000C00400004014002
:1031B0000040014000440140004801400018004028
:1031C000001C00400020004030B501F01F05012424
:1031D00004FA05F3046A9C430462046A01F01F05C3
:1031E00002FA05F52C43046230BD30B50C46816807
:1031F00021F47F4142EA032525432943816030BD04
:1032000030B5026A056A25F01005056243688469D5
:1032100024F4E04424F440740D6844EA052422F0C8
:1032200020028D6842EA0512124DA84200D103E047
:10323000114DA84207D100BF22F08002CD6842EABA
:10324000051222F040020B4DA84202D00A4DA842BE
:1032500009D123F4806323F400634D6943EA8503B5
:103260008D6943EA8503436084614D68856302622A
:1032700030BD0000000001400004014077B581B07E
:10328000044615460298A062A585002060642220AD
:1032900084F842002848E16BC8632848E16B086461
:1032A0002748E16BC8640020E16B086502AE326814
:1032B0002368191D2B46E06BFDF7B0FF00BF00200F
:1032C000009020680068009020684068009000BF6F
:1032D00000BF206970B100BF00BF21680C3151E808
:1032E000001F41F4807021680C3141E80002002A7F
:1032F000F3D100BF00BF00BF2168143151E8001FA7
:1033000041F001002168143141E80002002AF3D1A4
:1033100000BF00BF00BF2168143151E8001F41F019
:1033200040002168143141E80002002AF3D100BFB7
:10333000002004B070BD0000274E0008714D000849
:103340009949000810B50248FFF78AF910BD00003E
:10335000F409002010B50248FFF782F910BD000003
:103360003C0A002000BFFEE700B587B0142102A888
:10337000FDF705F800BF002001901248006840F0FA
:103380000100104908600846006800F00100019043
:1033900000BF00BF03200290112003900020049082
:1033A0000220059002A90848FDF796FF0122114668
:1033B0000548FEF7A1F8012202210348FEF79CF818
:1033C00007B000BD303802400000024010B50020B8
:1033D00000F0B4F8012000F09FF8012000F0AEF8F2
:1033E00010BD70B500240EE00021204600F0A6F9C3
:1033F000002504E0002000F0B2F9681CC5B2802D61
:10340000F8DB601CC4B2082CEEDB70BD08B500BF51
:10341000002000901C48006840F001001A49086034
:103420000846006800F00100009000BF00BF0806D9
:103430001649086041F61F4048600021134881602A
:103440003121C160002101614161FEF783FD6FF010
:1034500001000E49096808610C480068C06840F026
:1034600001000A490968C8600520FEF717F9012222
:1034700002211C20FEF7D4F81C20FEF7BDF80348FB
:10348000FEF7CAFD08BD0000403802406409002074
:1034900010B50446224610210148FEF72DF810BD54
:1034A000001C024010B50446224620210148FEF7C8
:1034B00023F810BD001C024010B50446224604212A
:1034C0000148FEF719F810BD001C024010B5044673
:1034D000224608210148FEF70FF810BD001C0240EB
:1034E00010B502210448FDF7FFFF04460A20FDF74E
:1034F000DFFE204610BD00000000024010B5012094
:1035000000F01CF8012000F007F8002000F016F889
:10351000002000F001F810BD10B504460CB10120E8
:1035200000E00020024601210348FDF7E5FF0A20E4
:10353000FDF7BEFE10BD00000000024010B50446BD
:103540000CB1012000E00020024602210348FDF7F3
:10355000D3FF0A20FDF7ACFE10BD000000000240C2
:1035600010B5FFF701FF01216B2000F023F90021C6
:103570006C2000F01FF90921192000F01BF9062129
:103580001A2000F017F918211B2000F013F9182158
:103590001C2000F00FF910BD00B587B0142102A85F
:1035A000FCF7EDFE00BF002001901848006840F0D5
:1035B0001000164908600846006800F010000190ED
:1035C00000BF00BF1120039000200490022005904E
:1035D0001020029002A90E48FDF77EFE20200290E6
:1035E00002A90B48FDF778FE322000F051FE0122BF
:1035F00010210748FDF780FF052000F049FE012259
:1036000020210348FDF778FF07B000BD30380240A5
:103610000010024010B5052000F03AFE00222021E3
:103620000B48FDF769FF052000F032FE0122102152
:103630000748FDF761FF052000F02AFE0122202146
:103640000348FDF759FF052000F022FE10BD0000E1
:10365000001002402DE9F04105460E461746721E45
:10366000D206110E6A1E5206100E00F067F80024F2
:1036700009E0A7F12001134A02EB0111085D00F0F7
:103680006EF8601CC4B2082CF3DB721ED206110E59
:103690006A1E012303EB4202D0B200F04FF800246F
:1036A0000BE0A7F12001074A02EB011204F1080127
:1036B000505C00F054F8601CC4B2082CF1DBBDE88B
:1036C000F0810000FE55000870B5054600240DE0AD
:1036D0008021214101EA0500FFF730FF0120FFF7BB
:1036E0001BFF0020FFF718FF601CC4B2082CEFDBA3
:1036F00070BD000010B5052000F0CAFD0122202198
:103700000D48FDF7F9FE052000F0C2FD0122102151
:103710000948FDF7F1FE052000F0BAFD0022202146
:103720000548FDF7E9FE052000F0B2FD002210215A
:103730000148FDF7E1FE10BD0010024070B50546DE
:103740000C4645F0B00000F033F9102141EA1410A6
:1037500000F02EF904F00F0000F02AF970BD10B54A
:103760000446FFF7C7FF782000F0E2F8402000F0A1
:10377000DFF8204600F0DCF8FFF74CFF10BD0146F3
:10378000302901D1012070470020FCE72DE9F041EC
:1037900007460E461546002407E02A5D3019C1B2DF
:1037A0003846FFF757FF601CC4B2285D0028F4D1EB
:1037B000BDE8F08170B505460C46FFF79FFED020AE
:1037C000FFF782FF00F00DF82846FFF77DFF00F0BD
:1037D00008F82046FFF778FF00F003F8FFF7F6FD42
:1037E00070BD10B50120FFF7A9FE052000F050FDC7
:1037F0000120FFF791FE052000F04AFDFFF770FE63
:103800000446052000F044FD0020FFF785FE204619
:1038100010BD000010B529490878FFF7B0FF044635
:10382000224602212648FDF767FE24494878FFF723
:10383000A6FF0446224604212148FDF75DFE1F49EC
:103840008878FFF79CFF0446224608211C48FDF7B4
:1038500053FE1A49C878FFF792FF0446224610210A
:103860001748FDF749FE15490879FFF788FF044618
:10387000224620211248FDF73FFE10494879FFF704
:103880007EFF0446224640210D48FDF735FE0B49D8
:103890008879FFF774FF0446224680210848FDF727
:1038A0002BFE0649C879FFF76AFF044622464FF40B
:1038B00080710348FDF720FE10BD0000DC140020DD
:1038C000001802400246164B9A4228D10C2925D2F4
:1038D000DFE801F02406080B0E111316191C1E2137
:1038E00010481BE00F48801C18E00E48001D15E032
:1038F0000C48801D12E00C4810E00B48801C0DE0C5
:103900000948001D0AE00848801D07E0074805E057
:103910000648801C02E00548001D00BF00BF70473C
:10392000140900201C0000201400002024000020A6
:1039300070B50546002423E0052000F0A9FC802096
:103940002041284008B1012000E00020024620214B
:103950001648FDF7D1FD052000F09AFC0122102148
:103960001248FDF7C9FD052000F092FC002210214D
:103970000E48FDF7C1FD052000F08AFC601CC4B2B2
:10398000082CD9DB052000F083FC01221021074818
:10399000FDF7B2FD052000F07BFC0022102103485A
:1039A000FDF7AAFD052000F073FC70BD0010024079
:1039B00010B50446FFF79EFE7820FFF7B9FF002000
:1039C000FFF7B6FF2046FFF7B3FFFFF723FE10BD5A
:1039D0002DE9F0478146884615461E46002D06DB38
:1039E0002B2241464846FFF735FE2F4605E02D22A3
:1039F00041464846FFF72EFE6F42002417E0301B79
:103A0000411E0A2000F05BFCB7FBF0F00A21B0FB7E
:103A1000F1F201FB120000F1300A08EB0400401C37
:103A2000C1B252464846FFF715FE601CC4B2B4420C
:103A3000E5DBBDE8F087000000B593B0302107A8B2
:103A4000FCF79DFC142102A8FCF799FC00BF0020A4
:103A500001902648006840F08050244908600846DC
:103A6000006800F08050019000BF00BF00BF002040
:103A700001901F48006840F440401D490860084616
:103A8000006800F44040019000BF00BF0120079093
:103A90000004089002200D9041050E9106210F911F
:103AA000B4211091022111910421129107A8FDF770
:103AB0008FFF08B1FCF71DFDFDF704FE08B1FCF710
:103AC00018FD0F20029002200390002004904FF474
:103AD000A05005904FF480500690052102A8FDF7F4
:103AE00037FE08B1FCF705FD13B000BD40380240B9
:103AF0000070004010B504462068A0F2012008289C
:103B000035D2DFE800F0040A10161C22282E04F13A
:103B10001C01184800F000FD29E004F11C011648C2
:103B200000F0FAFC23E004F11C01144800F0F4FC5E
:103B30001DE004F11C01124800F0EEFC17E004F156
:103B40001C01104800F0E8FC11E004F11C010E48D3
:103B500000F0E2FC0BE004F11C010C4800F0DCFC7E
:103B600005E004F11C010A4800F0D6FC00BF00BFCC
:103B700010BD00005C000020540100204C02002019
:103B8000440300203C040020340500202C060020C3
:103B90002407002070B504460D46F7480078302809
:103BA00021D1F548407830281DD1F348807830285D
:103BB00019D1F148C078302815D1EF480079302864
:103BC00011D1ED48407930280DD1EB48807930286B
:103BD00009D1E948C079302805D1FFF71BFE012043
:103BE000E649087089E2E4480078302821D1E248AB
:103BF000407830281DD1E0488078302819D1DE483F
:103C0000C078302815D1DC480079302811D1DA4845
:103C1000407930280DD1D8488079302809D1D6484C
:103C2000C079312805D1FFF7F5FD0220D34908708E
:103C300063E2D1480078302821D1CF48407830283D
:103C40001DD1CD488078302819D1CB48C078302894
:103C500015D1C9480079302811D1C748407930289A
:103C60000DD1C5488079312809D1C348C0793028A1
:103C700005D1FFF7CFFD0320C04908703DE2BE48E3
:103C80000078302821D1BC48407830281DD1BA486E
:103C90008078302819D1B848C078302815D1B64876
:103CA0000079302811D1B448407930280DD1B2487C
:103CB0008079312809D1B048C079312805D1FFF782
:103CC000A9FD0420AD49087017E2AB480078302800
:103CD00021D1A948407830281DD1A74880783028C4
:103CE00019D1A548C078302815D1A34800793028CB
:103CF00011D1A148407931280DD19F4880793028D1
:103D000009D19D48C079302805D1FFF783FD0520F2
:103D10009A490870F1E198480078302821D19648F6
:103D2000407830281DD194488078302819D19248A5
:103D3000C078302815D190480079302811D18E48AC
:103D4000407931280DD18C488079302809D18A48B2
:103D5000C079312805D1FFF75DFD0620874908703D
:103D6000CBE185480078302821D18348407830283D
:103D70001DD181488078302819D17F48C0783028FB
:103D800015D17D480079302811D17B484079312800
:103D90000DD179488079312809D17748C079302808
:103DA00005D1FFF737FD072074490870A5E1724877
:103DB0000078302821D17048407830281DD16E48D5
:103DC0008078302819D16C48C078302815D16A48DD
:103DD0000079302811D16848407931280DD16648E2
:103DE0008079312809D16448C079312805D1FFF79D
:103DF00011FD0820614908707FE15F480078302894
:103E000021D15D48407830281DD15B48807830282A
:103E100019D15948C078302815D157480079312830
:103E200011D15548407930280DD153488079302838
:103E300009D15148C079302805D1FFF7EBFC0920A2
:103E40004E49087059E14C480078302821D14A4841
:103E5000407830281DD148488078302819D146480C
:103E6000C078302815D144480079312811D1424812
:103E7000407930280DD140488079302809D13E481A
:103E8000C079312805D1FFF7C5FC0A203B490870ED
:103E900033E139480078302821D13748407830283C
:103EA0001DD135488078302819D13348C078302862
:103EB00015D131480079312811D12F484079302867
:103EC0000DD12D488079312809D12B48C07930286F
:103ED00005D1FFF79FFC0B20284908700DE126480B
:103EE0000078302821D12448407830281DD122483C
:103EF0008078302819D12048C078302815D11E4844
:103F00000079312811D11C48407930280DD11A4848
:103F10008079312809D11848C079312805D1FFF7B7
:103F200079FC0C2015490870E7E013480078312827
:103F300026D111484078302822D10F488078302887
:103F40001ED10D48C07830281AD10B48007930288E
:103F500016D109484079302812D107488079302895
:103F60000ED10548C07931280AD1FFF753FC0D2046
:103F700002490870C1E00000DC1400205900002054
:103F80005E480078312821D15C48407830281DD126
:103F90005A488078302819D15848C078302815D12F
:103FA00056480079302811D15448407930280DD135
:103FB00052488079312809D15048C079302805D13C
:103FC000FFF728FC0E204E49087096E04B48007819
:103FD000312821D14948407830281DD14748807880
:103FE000302819D14548C078302815D14348007988
:103FF000302811D14148407931280DD13F4880798E
:10400000302809D13D48C079312805D1FFF702FC9D
:104010000F203B49087070E038480078312821D1E2
:104020003648407830281DD134488078302819D15E
:104030003248C078302815D130480079302811D165
:104040002E48407931280DD12C488079312809D16A
:104050002A48C079302805D1FFF7DCFB1020284919
:1040600008704AE025480078312821D1234840785B
:1040700030281DD121488078302819D11F48C078B8
:10408000302815D11D480079302811D11B484079BE
:1040900030280DD119488079312809D11748C079C5
:1040A000312805D1FFF7B6FB10201549087024E030
:1040B00012480078312820D11048407830281CD18F
:1040C0000E488078302818D10C48C078302814D198
:1040D0000A480079302810D10848407931280CD19D
:1040E00006488079302808D10448C079302804D1A6
:1040F000FFF790FB10200249087070BDDC1400200F
:1041000059000020F0B58BB007460C4615461E46F8
:1041100004F0020080B1E8040190E80004F003011B
:1041200040EA41000290F0040390F00004F0030123
:1041300040EA4100049009E068010190A007400FA7
:10414000029070010390A007400F0490E0100690C9
:10415000C4F3800005900120099000200790012001
:1041600008900E200A9001A93846FCF7C5F90BB05B
:10417000F0BD10B52DED028B0446B0EE408AF0EE96
:10418000608A04F00100FFF78DF9C4F34000FFF7E7
:104190007FF9C4F38000FFF799F9C4F3C000FFF77B
:1041A0008BF9012121EA141000F0F2F8012121EA33
:1041B000541000F0E1F8012121EA941000F08AF88F
:1041C000012121EAD41000F08FF8012121EA142006
:1041D00000F094F8012121EA542000F099F801211F
:1041E00021EA942000F09EF8012121EAD42000F079
:1041F000A3F8012121EA143000F0A8F8012121EAF6
:10420000543000F0ADF8BDEC028B10BD70B5044623
:104210000D462046FCF7CBFD2068406940F00200C7
:10422000216848612068406940F0100021684861B9
:104230001349206888420FD1124804608562002328
:104240001A4619462046FFF75DFF00231A460C2147
:104250002046FFF757FF12E00B49206888420ED135
:104260000A480460856200231A4670212046FFF741
:1042700049FF00231A467C212046FFF743FF70BD0B
:1042800000640040040C002000680040300C002056
:1042900000EBC001C9004FF0E022516100219161A3
:1042A0000521116100BF4FF0E021096901F480315F
:1042B0000029F8D004214FF0E0221161704710B5B9
:1042C0000246012000E050430B1EA1F10101FAD18A
:1042D00010BD000010B50446224602210148FDF73A
:1042E0000BF910BD0018024010B504462246042107
:1042F0000148FDF701F910BD0018024010B5044651
:10430000224608210148FDF7F7F810BD00180240C9
:1043100010B50446224610210148FDF7EDF810BD06
:104320000018024010B50446224620210148FDF73E
:10433000E3F810BD0018024010B5044622464021A3
:104340000148FDF7D9F810BD0018024010B5044629
:10435000224680210148FDF7CFF810BD0018024029
:1043600010B5044622464FF480710248FDF7C4F8A8
:1043700010BD00000018024010B5044622464FF45C
:1043800080410248FDF7B8F810BD0000001402405B
:1043900010B5044622464FF400610248FDF7ACF820
:1043A00010BD00000010024070B5002406E000259A
:1043B00000E06D1CB5F57A7FFBD3641CB4F57A7F01
:1043C000F5D3FFF7E9F8AE20FFF7F2FAD520FFF7B3
:1043D000EFFA8020FFF7ECFAA820FFF7E9FA3F2078
:1043E000FFF7E6FAD320FFF7E3FA0020FFF7E0FA41
:1043F0004020FFF7DDFAA120FFF7DAFAC820FFF727
:10440000D7FADA20FFF7D4FA1220FFF7D1FA812089
:10441000FFF7CEFACF20FFF7CBFAD920FFF7C8FA83
:10442000F120FFF7C5FADB20FFF7C2FA3020FFF7D3
:10443000BFFAA420FFF7BCFAA620FFF7B9FA8D2037
:10444000FFF7B6FA1420FFF7B3FAAF20FFF7B0FA80
:10445000FEF7C7FF70BD00002DE9F04104460D4690
:1044600016461F4620492068884205D11F484560EE
:1044700006810460C76030E01D492068884205D18C
:104480001C48456006810460C76026E01A49206820
:10449000884205D11948456006810460C7601CE068
:1044A00017492068884205D1164845600681046096
:1044B000C76012E014492068884205D1134845605E
:1044C00006810460C76008E011492068884204D171
:1044D0001048456006810460C76032462946204680
:1044E000FEF706F8BDE8F081001001405C0C0020EA
:1044F000004400406C0C0020004800407C0C002070
:10450000004C00408C0C0020005000409C0C00200F
:1045100000140140AC0C002030B550F8B83F5B1CD3
:104520000360038903824B780C7843EA04230381F8
:10453000CB788C7843EA04231BB243814B790C7906
:1045400043EA04231BB283818B79C3810389048AE4
:10455000B8381B1B1AB212F5805F05DAD0F8D030DC
:104560005B1CC0F8D03007E0B2F5805F04DDD0F806
:10457000D0305B1EC0F8D030AC30838A0589446AE5
:1045800004FB0533036290ED080AF8EEC00A0389C4
:1045900000EE103AB8EE400A80EE801AB0EE000A43
:1045A00021EE000ADFED130A20EE200AD0ED000A0A
:1045B00080EE201A80ED0B1AB0F9163000EE103A9A
:1045C000B8EEC00ADFED0C0A20EE200AD0ED000A9A
:1045D00080EE201A80ED0C1AB0F9183000EE103A77
:1045E000B8EEC00A80ED0D0A837E80F83830AC3812
:1045F00030BD0000DB0F49405077D63DF0B5044692
:104600000D4616461F460F492868884203D10E48BA
:10461000C4F8A00006E00D492868884202D10C4881
:10462000C4F8A00084F8A46084F8E57084ED2B0A37
:10463000C4ED2C0A31462846FFF744F9C4F8A80017
:10464000F0BD000000640040040C00200068004041
:10465000300C002010B50446204600F08DFC0446C6
:10466000503000F089FC9FED1F0A00F15C0480EDE2
:10467000170A9FED1D0A80ED180A4FF400502081A3
:10468000400060810020E0602061A082E082208301
:104690006083A0832062606284F828009FED130A83
:1046A00084ED0B0A9FED110A84ED0C0A9FED0F0AB1
:1046B00084ED0D0A84F83800032084F839009FED5A
:1046C0000B0A84ED0F0A9FED090A84ED100A9FED95
:1046D000070A84ED110A9FED050A84ED120AAC3C2D
:1046E000204610BD2CA0994100008046000000002B
:1046F00030B50468246824F4802405682C600468BC
:1047000063608468402C04D10468A2600468E1609E
:1047100003E00468A1600468E26030BD0146002047
:104720008A6A8B69CBB932B1012A0DD0022A03D033
:10473000032A10D10EE000BFCB6A03F08073B3F1FF
:10474000807F00D1012007E0CB6AB3F1C07F00D1A8
:10475000012001E000E000BF34E08B69B3F5005FA9
:104760001AD132B1012A07D0022A03D0032A11D16B
:104770000AE000BF01200EE0CB6A03F08073B3F1C2
:10478000807F00D1012006E0CB6AB3F1C07F00D169
:10479000012000E000BF15E032B1012A05D0022A55
:1047A00004D0032A0CD103E000BF00BF012008E0C1
:1047B000CB6A03F08073B3F1807F00D1012000E069
:1047C00000BF00BF7047000001460878103818236A
:1047D000B0FBF3F20848805CC865032A05D9086875
:1047E0006FF30900001D886503E008686FF3090096
:1047F0008865886D70470000DE55000830B5026A94
:10480000056A25F0010505624368846924F0700497
:1048100024F003040D682C4322F002028D682A4321
:10482000104DA84200D103E00F4DA84206D100BFB1
:1048300022F00802CD682A4322F00402094DA84262
:1048400002D0094DA84207D123F4807323F40073EA
:104850004D692B438D692B43436084614D684563EB
:10486000026230BD000001400004014030B5026A20
:10487000056A25F4807505624368C46924F07004F4
:1048800024F003040D682C4322F400728D6842EA80
:104890000522124DA84200D103E0114DA84207D1D4
:1048A00000BF22F40062CD6842EA052222F4806251
:1048B0000A4DA84202D00A4DA84209D123F48053E0
:1048C00023F400534D6943EA05138D6943EA051348
:1048D0004360C4614D68C563026230BD00000140A1
:1048E0000004014030B5036A056A25F4805505626D
:1048F0004468C26922F4E04222F440720D6842EA40
:10490000052223F400538D6843EA0533084DA8427D
:1049100002D0084DA84204D124F480444D6944EAF1
:1049200085144460C2614D680564036230BD0000B7
:1049300000000140000401400A46816821F0700136
:1049400042F0070319438160704730B50B461446A7
:10495000026A056A25F001050562816921F0F0010E
:1049600041EA041122F00A021A438161026230BD59
:1049700030B50B461446026A056A25F0100505623B
:10498000816921F4704141EA043122F0A00242EA37
:1049900003128161026230BD70B506460025B46B1A
:1049A00020684069C0F3C01594F84100212805D162
:1049B00025B10020E084204600F022FA20684069FA
:1049C000C0F3801594F84200222805D125B10020BB
:1049D000E085204600F0DEF9606C40F01000606475
:1049E0002046FDF73BFE70BD2DE9F84F04462068D8
:1049F000006920F44050E16808432168086121699A
:104A0000A068084361690843E16908430090206891
:104A1000C06849F20C618843009908432168C86066
:104A20002068406920F44070A1690843216848610A
:104A300076492068884203D075492068884203D1AE
:104A4000FCF75EFF814602E0FCF74AFF8146E06921
:104A5000B0F5004F6CD102206168A0FB0150034605
:104A60001920A9FB007001462A463846FBF710FCC6
:104A70006421B0FBF1F04FEA001A02206168A0FB4C
:104A800001510B461920A9FB00712A463846FBF755
:104A9000FFFB834602206168A0FB015003461920FA
:104AA000A9FB00712A463846FBF7F2FB6421B0FBF4
:104AB000F1F000EBC00101EB0010ABEB8000322104
:104AC00001EBC0006421B0FBF1F000F0F8000AEB4C
:104AD000400A02206168A0FB015003461920A9FB8F
:104AE000007001462A463846FBF7D2FB8346022077
:104AF0006168A0FB015003461920A9FB00712A46FA
:104B00003846FBF7C5FB6421B0FBF1F000EBC001B8
:104B100001EB0010ABEB8000322101EBC0006421FF
:104B2000B0FBF1F000F007005044216888606AE0B3
:104B300004206168A0FB015003461920A9FB007006
:104B400001462A463846FBF7A3FB824604206168EB
:104B5000A0FB015003461920A9FB007001462A461C
:104B60003846FBF795FB6421B0FBF1F000EBC00188
:104B700001EB0010AAEB8000322101EB0010642150
:104B8000B0FBF1F000F0F00A04206168A0FB0170B6
:104B900003461920A9FB00513A462846FBF778FB4B
:104BA0006421B0FBF1F00AEB001A04206168A0FB5D
:104BB00001510B461920A9FB00712A463846FBF724
:104BC00067FB834604206168A0FB0150034619205F
:104BD000A9FB007001462A463846FBF759FB6421C1
:104BE000B0FBF1F000EBC00101EB0010ABEB80007B
:104BF000322101EB00106421B0FBF1F000F00F0056
:104C0000504421688860BDE8F88F00000010014022
:104C100000140140F8B5044694F84200222875D1EA
:104C2000A068B0F5805F0CD1206950B90025A66A54
:104C300020684068C0F308003080A06A801CA06231
:104C400015E0A56A0026A068B0F5805F03D0A068D3
:104C500028B9206918B920684068287004E02068E5
:104C6000406800F07F002870A06A401CA062E08DC0
:104C7000401E80B2E085002846D12068C06820F040
:104C800020002168C8602068C06820F48070216816
:104C9000C8602068406920F0010021684861202038
:104CA00084F8420000206063206B012826D1002098
:104CB000206300BF00BF21680C3151E8001F21F0C4
:104CC000100021680C3141E80002002AF3D100BF36
:104CD0002068006800F0100010280AD100BF0020F2
:104CE000009020680068009020684068009000BF35
:104CF00000BFA18D2046FDF735FC02E02046FDF700
:104D000073FF0020F8BD01E00020FBE70220F9E777
:104D1000014691F84100212828D18868B0F5805FCC
:104D20000BD1086948B90A6A1088C0F308000B68FB
:104D30005860086A801C086205E00B6A581C08620B
:104D400018780B685860C88C401E80B2C88458B967
:104D50000868C06820F080000B68D8600868C068E8
:104D600040F040000B68D860002070470220FCE74C
:104D700070B50546AC6B01206063206B012805D13E
:104D8000A08D41082046FDF7EDFB02E02046FDF72F
:104D90002CFF70BD00BF00BF02680C3252E8002F2C
:104DA00022F4907102680C3242E80013002BF3D118
:104DB00000BF00BF00BF0268143252E8002F22F08B
:104DC00001010268143242E80013002BF3D100BF46
:104DD000016B01290ED100BF00BF02680C3252E8FE
:104DE000002F22F0100102680C3242E80013002B61
:104DF000F3D100BF202180F84210002101637047E9
:104E000000BF00BF02680C3252E8002F22F0C00140
:104E100002680C3242E80013002BF3D100BF2021BE
:104E200080F84110704770B50546AC6B2868006883
:104E300000F48070002842D1E08500BF00BF2168E7
:104E40000C3151E8001F21F4807021680C3141E8D9
:104E50000002002AF3D100BF00BF00BF2168143157
:104E600051E8001F21F001002168143141E80002DF
:104E7000002AF3D100BF00BF00BF2168143151E800
:104E8000001F21F040002168143141E80002002A8F
:104E9000F3D100BF202084F84200206B01280ED1FE
:104EA00000BF00BF21680C3151E8001F21F0100045
:104EB00021680C3141E80002002AF3D100BF002034
:104EC0006063206B012804D1A18D2046FDF74AFBC9
:104ED00002E02046FDF788FE70BD10B5044620684C
:104EE000C06820F040002168C860202084F841009C
:104EF0002046FDF77BFE002010BD70B50546AC6B6B
:104F00000020E085E0842046FDF7A8FB70BD00008E
:104F100010B5002804DB0A07130E054A135406E0F7
:104F20000A07140E034A00F00F031B1FD45410BDD0
:104F300000E400E018ED00E002480068C0F3022041
:104F4000704700000CED00E080ED080AC0ED090A92
:104F500080ED0A1AC0ED0B1A80ED0C2AC0ED0D2A67
:104F600080ED003AC0ED013A80ED0E4AC0ED0F4AE7
:104F700080ED105A017270479FED220A80ED030AFE
:104F80009FED200A80ED040A9FED1E0A80ED050AC0
:104F90009FED1C0A80ED060A9FED1A0A80ED070AB4
:104FA0009FED180A80ED080A9FED160A80ED090AA8
:104FB0009FED140A80ED0A0A9FED120A80ED0B0A9C
:104FC0009FED100A80ED0C0A9FED0E0A80ED0D0A90
:104FD0009FED0C0A80ED0E0A9FED0A0A80ED0F0A84
:104FE0009FED080A80ED100A9FED060A80ED110A78
:104FF0009FED040A80ED120A9FED020A80ED130A6C
:10500000704700000000000010B50E48FFF722FBBB
:105010000D48FFF71FFB0D48FFF71CFB0C48FFF77F
:1050200019FB0C48FFF716FB0B48FFF713FB0B4867
:10503000FFF710FB0A48FFF70DFB0A48FFF70AFBD2
:1050400010BD00005C000020540100204C02002034
:10505000440300203C040020340500202C060020DE
:10506000240700201C080020FCF75EFAFFF79CF9DB
:10507000FEF776FAFEF7CAF9FEA201210846FEF70E
:1050800085FBFEA202210846FEF780FBFDA203215C
:105090000846FEF77BFBFEF7CFFCFDF733FEFDF77E
:1050A000EDFDFDF7A7FDFDF7CFFFFDF761FFFDF774
:1050B000C3FDFDF7E5FFFDF709FF0C21F348FDF700
:1050C00091F90C21F248FDF78DF90821F048FDF720
:1050D00089F9F04B0A22F049F048FFF7BDF9DFEDFE
:1050E000F00A9FEDEF0A0F20FFF743F8ED49EE4875
:1050F000FFF78CF8EB49ED48FFF788F800231A46D4
:105100000421E948FEF7FEFF00231A467421E74810
:10511000FEF7F8FF00219FEDE25ADFEDE14A9FED37
:10512000E04ADFEDDF3A9FEDE23ADFEDE22A9FED64
:10513000E12ADFEDDB1A9FEDDA1ADFEDD90A9FEDE8
:10514000DE0ADE48FFF700FF00219FEDD55ADFEDB4
:10515000D44A9FEDD34ADFEDD23A9FEDD53ADFED49
:10516000D82A9FEDD72ADFEDCE1A9FEDCD1ADFEDBD
:10517000CC0A9FEDD10AD1485030FFF7E5FEDFEDB4
:10518000D10AB7EE000A02230122C749CB48FFF734
:1051900035FA00219FEDC25ADFEDC14A9FEDC04AAA
:1051A000DFEDBF3A9FEDC23ADFEDC22A9FEDC12A83
:1051B000DFEDBB1A9FEDBA1ADFEDB90A9FEDBE0A0B
:1051C000C148FFF7C1FE00219FEDB55ADFEDB44A9B
:1051D0009FEDB34ADFEDB23A9FEDB53ADFEDB82A65
:1051E0009FEDB72ADFEDAE1A9FEDAD1ADFEDAC0AE9
:1051F0009FEDB10AB4485030FFF7A6FEDFEDB10ACB
:10520000B7EE000A02231A46A749AF48FFF7F6F99E
:1052100000219FEDA35ADFEDA24A9FEDA14ADFEDE9
:10522000A03A9FEDA33ADFEDA32A9FEDA22ADFED7E
:105230009C1A9FED9B1ADFED9A0A9FED9F0AA348E7
:10524000FFF782FE00219FED965ADFED954A9FED14
:10525000944ADFED933A9FED963ADFED992A9FED60
:10526000982ADFED8F1A9FED8E1ADFED8D0A9FEDE4
:10527000920A96485030FFF767FEDFED920AB7EECC
:10528000000A0223032288499048FFF7B7F900215A
:105290009FED835ADFED824A9FED814ADFED803A30
:1052A0009FED833ADFED8A2A9FED822ADFED7C1A9B
:1052B0009FED7B1ADFED7A0A9FED7F0A8548FFF7A5
:1052C00043FE00219FED765ADFED754A9FED744A4B
:1052D000DFED733A9FED763ADFED792A9FED782A7C
:1052E000DFED6F1A9FED6E1ADFED6D0A9FED720A0A
:1052F00078485030FFF728FEDFED720AB7EE000A5B
:105300000223042268497348FFF778F900219FEDD2
:10531000645ADFED634A9FED624ADFED613A9FED2B
:10532000643ADFED6B2A9FED632ADFED5D1A9FED96
:105330005C1ADFED5B0A9FED600A6748FFF704FE29
:1053400000219FED575ADFED564A9FED554ADFED9C
:10535000543A9FED573ADFED5A2A9FED592ADFED77
:10536000501A9FED4F1ADFED4E0A9FED530A5A482F
:105370005030FFF7E9FDDFED530AB7EE000A0223D4
:10538000052249495448FFF739F900219FED445A55
:10539000DFED434A9FED424ADFED413A9FED443A4B
:1053A000DFED4B2A9FED432ADFED3D1A9FED3C1ABE
:1053B000DFED3B0A9FED400A4848FFF7C5FD00219D
:1053C0009FED375ADFED364A9FED354ADFED343A2F
:1053D0009FED373ADFED3A2A9FED392ADFED301A9B
:1053E0009FED2F1ADFED2E0A9FED330A3B48503018
:1053F000FFF7AAFDDFED330AB7EE000A022306220B
:1054000029493648FFF7FAF800219FED255ADFEDCC
:10541000244A9FED234ADFED223A9FED253ADFED46
:105420002C2A9FED242ADFED1E1A9FED1D1ADFEDB9
:105430001C0A9FED210A2A48FFF786FD00219FEDF7
:10544000185ADFED174A9FED164ADFED153A9FED2A
:10545000183ADFED1B2A9FED1A2ADFED111A9FED96
:10546000101ADFED0F0A9FED140A1D485030FFF7A8
:105470006BFD37E050697463683A0000526F6C6CE2
:105480003A0000005961773A0000000064090020EA
:10549000AC090020953B0008DC140020F409002032
:1054A00000000000F53A0008140900203C09002023
:1054B0006F12833ADD7E3C420000C8425C0000204F
:1054C00000401C4500008046540100204C02002092
:1054D000D2537B42440300203C04002034050020CA
:1054E0002C0600205FED090AB7EE000A022307220E
:1054F00034493548FFF782F800211FED175A5FED58
:10550000184A1FED194A5FED1A3A1FED173A5FED81
:10551000102A1FED182A5FED1E1A1FED1F1A5FEDEE
:10552000200A1FED1B0A2948FFF70EFD00211FED81
:10553000245A5FED254A1FED264A5FED273A1FEDFD
:10554000243A5FED212A1FED222A5FED2B1A1FED71
:105550002C1A5FED2D0A1FED280A1C485030FFF76A
:10556000F3FC5FED280AB7EE000A03230822154971
:105570001648FFF743F823E0154890ED000ABDEE0A
:10558000C00A10EE102A032308210120FEF720FA9A
:105590000F4890ED010ABDEEC00A10EE102A032359
:1055A00008210220FEF714FA094890ED020ABDEE28
:1055B000C00A10EE102A032308211846FEF708FA45
:1055C000DAE70000140900202C0600202407002040
:1055D000001500204FF04070E1EE100A7047000601
:1055E0001016000610160000000000000000010266
:1055F000030406070809000000000102030400007C
:10560000000000000000000000000000000000009A
:1056100000F800000000000000333000000000101F
:105620000C06100C0600000000000000000040C046
:105630007840C0784000043F04043F040400007038
:1056400088FC08300000001820FF211E0000F00830
:10565000F000E018000000211C031E211E0000F0D5
:105660000888700000001E2123241927211010161D
:105670000E0000000000000000000000000000001C
:1056800000E018040200000000071820400000029B
:105690000418E0000000004020180700000040400F
:1056A00080F0804040000202010F01020200000071
:1056B00000F0000000000101011F010101000000D5
:1056C00000000000000080B070000000000000003A
:1056D00000000000000000010101010101010000C3
:1056E000000000000000003030000000000000005A
:1056F000000080601804006018060100000000E04F
:1057000010080810E000000F102020100F000010FB
:1057100010F8000000000020203F20200000007052
:10572000080808887000003028242221300000304A
:105730000888884830000018202020110E00000042
:10574000C02010F8000000070424243F240000F8C3
:105750000888880808000019212020110E0000E0A8
:10576000108888180000000F112020110E0000384A
:105770000808C83808000000003F00000000007062
:10578000880808887000001C222121221C0000E0EB
:1057900010080810E0000000312222110F00000064
:1057A00000C0C00000000000003030000000000019
:1057B0000080000000000000806000000000000089
:1057C0008040201008000001020408102000404022
:1057D0004040404040000404040404040400000865
:1057E000102040800000002010080402010000701A
:1057F00048080808F0000000003036010000C03002
:10580000C828E810E0000718272423140B00000024
:10581000C038E0000000203C23020227382008F8AE
:10582000888888700000203F202020110E00C030A2
:10583000080808083800071820202010080008F879
:1058400008080810E000203F202020100F0008F872
:105850008888E8081000203F20202320180008F83E
:105860008888E8081000203F200003000000C030B6
:1058700008080838000007182020221E020008F837
:1058800008000008F808203F210101213F200008FE
:1058900008F8080800000020203F20200000000039
:1058A0000808F8080800C08080807F00000008F821
:1058B00088C028180800203F20012638200008F85A
:1058C000080000000000203F20202020300008F8C1
:1058D000F800F8F80800203F003F003F200008F8DB
:1058E00030C00008F808203F200007183F00E010F3
:1058F00008080810E0000F10202020100F0008F802
:1059000008080808F000203F210101010000E01014
:1059100008080810E0000F18242438504F0008F839
:10592000888888887000203F2000030C3020007099
:105930008808080838000038202121221C00180897
:1059400008F8080818000000203F2000000008F8B0
:1059500008000008F808001F202020201F000878F9
:10596000880000C83808000007380E010000F80859
:1059700000F80008F800033C0700073C0300081883
:1059800068808068180820302C03032C30200838E9
:10599000C800C83808000000203F200000001008A0
:1059A0000808C838080020382621202018000000E8
:1059B00000FE020202000000007F40404000000C98
:1059C00030C000000000000000010638C0000002E6
:1059D0000202FE000000004040407F000000000086
:1059E00004020202040000000000000000000000A9
:1059F00000000000000080808080808080800002A5
:105A00000204000000000000000000000000000090
:105A10008080808000000019242222223F2008F884
:105A2000008080000000003F112020110E000000C7
:105A3000008080800000000E112020201100000056
:105A400000808088F800000E112020103F20000008
:105A5000808080800000001F22222222130000800C
:105A600080F0888888180020203F20200000000057
:105A7000808080808000006B94949493600008F88C
:105A8000008080800000203F210000203F20008017
:105A90009898000000000020203F20200000000017
:105AA00000809898000000C08080807F000008F887
:105AB000000080808000203F24022D30200000085C
:105AC00008F8000000000020203F20200000808017
:105AD000808080808000203F20003F20003F808029
